:020000040800F2
:10000000B0040020A1010008FF0E0008010E000846
:10001000FD0E0008AD020008B91000080000000045
:10002000000000000000000000000000030F0008B6
:10003000AF02000800000000010F0008050F0008D3
:10004000BB010008BB010008BB010008BB010008A0
:10005000BB010008BB010008BB010008BB01000890
:10006000BB010008BB010008BB010008BB01000880
:10007000BB010008BB010008BB010008BB01000870
:10008000BB010008BB010008BB010008BB01000860
:10009000BB010008BB010008BB010008BB01000850
:1000A000BB010008BB010008BB010008BB01000840
:1000B000BB010008BB010008BB010008BB01000830
:1000C000BB010008BB010008BB010008BB01000820
:1000D000BB010008BB010008BB010008BB01000810
:1000E000BB010008BB010008BB010008BB01000800
:1000F000BB010008BB010008BB010008BB010008F0
:10010000BB010008BB010008BB010008BB010008DF
:10011000BB010008BB010008BB010008BB010008CF
:10012000BB010008BB010008BB010008BB010008BF
:10013000BB010008BB010008BB010008BB010008AF
:10014000BB010008BB010008BB010008BB0100089F
:10015000BB010008BB010008BB010008BB0100088F
:10016000BB010008BB010008BB010008BB0100087F
:10017000BB010008BB010008BB0100080000000033
:10018000BB010008BB010008DFF810D000F07CF8CC
:1001900000480047F9100008AFF30080B0040020C9
:1001A0000648804706480047FEE7FEE7FEE7FEE711
:1001B000FEE7FEE7FEE7FEE7FEE7FEE79D0F00082D
:1001C000890100082DE9F05F0546002092469B4614
:1001D00088460646814640241BE02846414647465D
:1001E000224600F041F853465A46C01A914110D3B6
:1001F00011461846224600F028F82D1A67EB010830
:100200004F4622460120002100F01FF817EB00099D
:100210004E41201EA4F10104DFDC484631462A4647
:100220004346BDE8F09FD2B201E000F8012B491E21
:10023000FBD270470022F6E710B513460A46044683
:100240001946FFF7F0FF204610BD202A04DB203AB4
:1002500000FA02F1002070479140C2F1200320FA19
:1002600003F3194390407047202A04DB203A21FA17
:1002700002F00021704721FA02F3D040C2F12002BF
:100280009140084319467047064C074D06E0E06868
:1002900040F0010394E8070098471034AC42F6D3CD
:1002A000FFF776FF2811000848110008FEE77047A5
:1002B00072B6FEE72DE9F84FDFF8BCA10022012558
:1002C00003264FF00F090AF1040BAAF1040E00BF38
:1002D0000B6805FA02F42340A34270D10F7907F0AE
:1002E0000307012F01D0022F16D187684FEA420879
:1002F00006FA08FC27EA0C07D1F80CC00CFA08FC37
:100300004CEA070CC0F808C04768A7430C79C4F34F
:10031000001494403C4344600C79E443A4070AD0A1
:10032000C4684FEA420C06FA0CF7BC438F6807FA20
:100330000CF72743C7600C7904F00304022C12D198
:10034000D40800EB840CDCF820405707FF0E09FAB4
:1003500007F824EA0804D1F8108008FA07F848EAF8
:100360000408CCF8208004684FEA420C06FA0CF727
:10037000BC430F7907F0030707FA0CF72743076020
:100380004C6814F4403F70D03C4C276847F48047D9
:100390002760246822F0030704F480440094384C5A
:1003A00007EB040CDCF8084897074FEA177809FABE
:1003B00008F7BC43334FB84202D1002724E054E091
:1003C000314FB84201D101271EE0304FB84201D170
:1003D000022719E02E4FB84201D1032714E02D4F18
:1003E000B84201D104270FE02B4FB84201D10527B5
:1003F0000AE02A4FB84201D1062705E0284FB8424B
:1004000001D1072700E0082707FA08F72743CCF8AF
:100410000878DAF800405746D1F804C09C435FEAF8
:10042000CC2C00D51C433C60DBF800405F46D1F883
:1004300004C09C435FEA8C2C00D51C433C60DEF872
:1004400000407746D1F804C09C435FEA8C3C00D55D
:100450001C433C60084F083F3C68D1F804C09C43F3
:100460005FEACC3C00D51C433C60521C102AFFF4D0
:100470002FAFBDE8F88F0000083C0140443802402F
:100480000030014000000240000402400008024029
:10049000000C02400010024000140240001802400C
:1004A000001C02400AB1816170470904FBE70000AB
:1004B00001488068704700000000002070B504000B
:1004C00025D094F83D00002520B984F83C50204602
:1004D00000F0B8F8242084F83D002068016821F07D
:1004E000010101602068016841F400410160206859
:1004F000016821F40041016000F0FEF94D4A616895
:10050000914201D84C4900E04C49884201D2012077
:1005100070BD4B492368B0FBF1F15E6826F03F06E1
:100520000E435E606368934206D94FF49673594355
:100530004FF47A73B1FBF3F12368491C1E6A26F06D
:100540003F06314319626168914210D84900401E4C
:10055000B0FBF1F2521CC2F30B02042A01D20420B8
:1005600022E0B0FBF1F0401CC0F30B001CE0A268DD
:10057000F2B301EBC10303EB0116431EB3FBF6F329
:100580005B1C43F480431B0549D092B301EBC102CD
:1005900002EB0111401EB0FBF1F0401CC0F30B0058
:1005A00040F4804040F400402168CA694CF6FF7373
:1005B0009A431043C861D4E90710014320680268D8
:1005C00022F0C00211430160D4E903010143206815
:1005D000826848F2FF339A4311438160D4E90501F0
:1005E00008432168CA6822F0FF021043C86001E096
:1005F0000EE016E02068016841F001010160256409
:10060000202084F83D00256384F83E50002070BD12
:1006100001EB4106431EB3FBF6F35B1CB3E701207D
:10062000C2E701EB4101401EB0FBF1F0401CC0F3FA
:100630000B00B7E7A086010080841E0000093D0082
:1006400040420F0010B586B0044614216846FFF7FB
:10065000F1FD13492068884220D112480021026828
:1006600042F002020260006800F002000590C02023
:1006700000901220CDE90101032003900420049092
:1006800069460948FFF716FE06481030016841F434
:1006900000110160006800F40010059006B010BD64
:1006A0000054004030380240000402400248816893
:1006B0000278114481607047000000200B4810B59B
:1006C000016841F400710160016841F480610160DA
:1006D000016841F480710160032000F061F80F208F
:1006E00000F006F800F024F8002010BD003C0240A5
:1006F00070B50D4D04464FF47A712878B1FBF0F0D7
:100700000A490968B1FBF0F000F0FEFA48B9102C74
:1007100007D200222146501E00F022F800206C6013
:1007200070BD012070BD0000000000200C00002002
:100730000A4808B5016841F480410160006800F48E
:10074000804000900548001F016841F08051016021
:10075000006800F08050009008BD0000443802405E
:10076000F0B40E4B1B680C46C3F30223C3F107051C
:10077000042D00D90425191D072901D2002300E00A
:10078000DB1E012606FA05F1491E214099409E40D4
:10079000761E16403143F0BC00F08FBC0CED00E03B
:1007A000064900F0070208684FF6FF03184040EAC8
:1007B0000220034A10430860704700000CED00E07F
:1007C0000000FA052DE9F0470E46050065D0DFF878
:1007D0001481D8F80000F7B200F00700B04207D249
:1007E00088F80070D8F8000000F00700B04254D13B
:1007F00028683D4C810712D5400703D5206840F496
:10080000E05020602878000703D5206840F460405D
:1008100020602068A96820F0F00008432060287854
:10082000C0072DD0304968680839012812D0022845
:1008300013D0032811D00968890700292DDA21680F
:1008400021F0030101432160FFF732FE814641F2AE
:10085000883A0EE009688903EFE709688901ECE747
:10086000FFF726FEA0EB0901514502D90320BDE8A0
:10087000F0872068696800F00C00B0EB810FEFD1C1
:10088000D8F80010404601F00701B14207D90770BF
:10089000006800F00700B04201D00120E7E72878A7
:1008A000400705D52068E96820F4E050084320603F
:1008B0002878000706D52068296920F4604040EABE
:1008C000C100206000F038F82168084AC1F3031124
:1008D000515CC8400649086006480068FFF708FFF9
:1008E0000020C4E7003C0240083802400E11000816
:1008F0000C00002004000020044805490068096835
:10090000044AC1F38221515CC84070470C000020AA
:10091000083802401E1100080448054900680968AB
:10092000044AC1F34231515CC84070470C000020BA
:10093000083802401E110008154810B5006810F074
:100940000C02144813D01449042A0FD0082A0ED1DF
:100950000F4C241F2268236802F03F025B0207D578
:100960002068C0F38810A0FB010106E0084610BD16
:100970002168C1F38811A1FB00010023FFF722FCCD
:100980002168C1F30141491C4900B0FBF1F010BDE1
:10099000083802400024F40040787D012DE9F84F2A
:1009A00004006ED02078DFF84C93C007A9F104054D
:1009B0004AD009F104000168C1F38101012908D07E
:1009C0000068C0F3810002280AD1D9F80000400273
:1009D00006D52868800337D560680028E1D033E069
:1009E0006068B0F5803F10D0B0F5A02F286810D017
:1009F00020F480302860286820F480202860606817
:100A0000A8B1FFF755FD06460DE0286840F4803098
:100A1000F4E740F480202860F7E700BFFFF748FDC7
:100A2000801B642873D828688003F7D50CE0FFF793
:100A30003FFD064605E000BFFFF73AFD801B642836
:100A4000F0D828688003F7D42078DFF8AC828007DC
:100A50004FF0000A3ED5A748001D016811F00C0FA9
:100A600008D00068C0F3810002280BD1D9F800003B
:100A7000400207D42868800716D5E068012800D115
:100A800012E033E1E068B8B10120C8F80000FFF7D8
:100A90000FFD064605E000BFFFF70AFD801B022898
:100AA000C0D828688007F7D52868216920F0F800A9
:100AB00040EAC10028600DE0C8F800A0FFF7F8FC8C
:100AC000064604E0FFF7F4FC801B02281FD82868C4
:100AD0008007F7D42078000722D5864F87486169C0
:100AE000703771B101210160FFF7E2FC064604E0B6
:100AF000FFF7DEFC801B022809D838688007F7D58D
:100B00000EE0C0F800A0FFF7D3FC064605E082E047
:100B1000FFF7CEFC801B02287DD838688007F7D409
:100B20002078400768D5DFF8CCB100270BF13C0BEB
:100B3000DBF80000C0000BD4DBF8001041F080515E
:100B4000CBF80010DBF80000012700F08050009087
:100B50006B4E3068C00510D4306840F4807030604F
:100B6000FFF7A6FC009005E0FFF7A2FC0099401AF1
:100B7000022850D83068C005F6D55E4EA0686C36A5
:100B800001280FD00528306810D020F00100306017
:100B9000306820F004003060A068B8B1FFF788FC2E
:100BA00000900FE0306840F00100F4E740F00400EE
:100BB0003060F7E7FFF77CFC0099411A41F288307A
:100BC000814266D830688007F4D50EE0FFF770FCEC
:100BD000009007E0FFF76CFC0099411A41F2883061
:100BE000814256D830688007F4D42FB1DBF800106A
:100BF00021F08051CBF80010A069C8B33D49091D10
:100C00000968C1F3810102294AD00228504607D061
:100C1000C8F8600000E03CE0FFF74AFC04463BE017
:100C20004746C8F86000FFF743FC064605E000BFF2
:100C3000FFF73EFC801B02282BD828688001F7D4E0
:100C4000D4E907010843A16A2E4A490802EB014191
:100C5000626A41EA8211084394F82C1040EA01616B
:100C6000C9F8001001203866FFF722FC044606E0B0
:100C70003EE000BFFFF71CFC001B022809D82868D3
:100C80008001F7D534E000BFFFF712FC001B0228FB
:100C900002D90320BDE8F88F28688001F4D427E04A
:100CA0000128F7D0D9F80000E26900F480019142F0
:100CB0001CD1226A00F03F01914217D147F6C07162
:100CC000626A0140B1EB821F10D1A26A4FF0FF337C
:100CD00000F4403103EB5202B1EB024F06D194F81D
:100CE0002C1000F07060B0EB016F01D00120D1E753
:100CF0000020CFE70438024000004742800E474200
:100D0000007000400000FFFF10B5401EB0F1807F72
:100D100001D3012010BD4FF0E02460610F21601766
:100D200000F0CBF90020A06107202061002010BD59
:100D300070B5040004D094F84100002510B106E01D
:100D4000012070BD84F84050204600F023F8242094
:100D500084F841002068C16821F40051C160204638
:100D600000F024F92068016921F4904101612068B4
:100D7000416921F02A0141612068C16841F40051B4
:100D8000C1606564202084F8410084F842006563F6
:100D9000002070BD10B586B0044614216846FFF7E8
:100DA00049FA14492068884221D113480021026879
:100DB00042F010020260006800F0100005900E483A
:100DC0001438026842F001020260006800F001007D
:100DD00005904FF4C06000900220CDE9010103208E
:100DE00003900720049069460448FFF763FA06B0B1
:100DF00010BD0000001001404438024000000240D5
:100E0000FEE7000030B587B014216846FFF712FAFC
:100E10001A480024016841F004010160016801F0F2
:100E200004010591016841F080010160016801F051
:100E300080010591016841F001010160016801F044
:100E400001010591016841F00201016000680C4D4B
:100E500000F00200059000220C212846FFF722FB3B
:100E60000C200090112001900120CDE90204694678
:100E70002846FFF71FFA07B030BD000030380240A7
:100E8000000002400D4810B50B4901600C4941605B
:100E900000214FF480428160C0E903124161816109
:100EA000C1610162FFF70AFB002803D0BDE81040D2
:100EB000FFF7FEB910BD00000054004010000020F4
:100EC000A08601000C4810B50A4901604FF4E131D9
:100ED0004160002181600C22C160C0E9041281617F
:100EE000C161FFF725FF002803D0BDE81040FFF7E0
:100EF000DFB910BD0010014064000020FEE7FEE7EE
:100F000070477047FFF7D2BB70B592B0302168468A
:100F1000FFF790F914210CA8FFF78CF91D48002564
:100F2000016841F080510160006800F0805011902C
:100F30001948016841F4804101600068022400F40E
:100F40008040119001200090000401908001CDE9C3
:100F500006400F2608969020CDE9090404200B9046
:100F60006846FFF71BFD08B172B6FEE74FF4A050CC
:100F7000CDE90E504FF48050CDE90C641090032160
:100F80000CA8FFF71FFC002801D072B6FEE712B0D4
:100F900070BD000040380240007000400248016807
:100FA00041F470010160704788ED00E070B50446BF
:100FB00000680169E26821F440511143016121692F
:100FC000A068E26908436169114308432168CA685F
:100FD00049F20C639A430243CA6020684169A269DE
:100FE00021F440711143416131492068884202D0A7
:100FF0003049884202D1FFF78FFC01E0FFF77CFC0B
:10100000E2690023192164253226B2F5004F626897
:1010100028D0A0FB0101930F9200FFF7D3F80146FF
:10102000B0FBF5F06FF01802504301EB800006EBC7
:101030000010B0FBF5F000F0F002B1FBF5F002EBB0
:101040000012B1FBF5F06FF01803584301EB80007C
:1010500006EB0010B0FBF5F000F00F002168104423
:10106000886070BDA0FB010192185B41FFF7AAF8F0
:101070000146B0FBF5F00201B1FBF5F06FF018038B
:10108000584301EB800006EBC000B0FBF5F000F028
:10109000F80002EB4002B1FBF5F0584301EB800091
:1010A00006EBC000B0FBF5F000F00700D6E700004B
:1010B0000010014000140140FEE70907090E002856
:1010C00004DB00F1E02080F80014704700F00F000E
:1010D00000F1E02080F8141D704702E008C8121FDC
:1010E00008C1002AFAD170477047002001E001C111
:1010F000121F002AFBD17047FFF7E0FAFFF704FF49
:10110000FFF780FEFFF7BEFEFFF7DCFEFEE7000004
:1011100000000000000001020304060708090000A7
:101120000000010203040000481100080000002034
:1011300010000000DA10000858110008100000200C
:10114000A0040000EA1000080100000010000000E8
:08115000000000000024F4007F
:040000050800018965
:00000001FF
